{
    "contractName": "DocumentVerification",
    "abi": [
        {
            "inputs": [
                {
                    "internalType": "string",
                    "name": "",
                    "type": "string"
                }
            ],
            "name": "documents",
            "outputs": [
                {
                    "internalType": "string",
                    "name": "fileName",
                    "type": "string"
                },
                {
                    "internalType": "string",
                    "name": "fileHash",
                    "type": "string"
                },
                {
                    "internalType": "uint256",
                    "name": "timestamp",
                    "type": "uint256"
                },
                {
                    "internalType": "address",
                    "name": "uploader",
                    "type": "address"
                }
            ],
            "stateMutability": "view",
            "type": "function"
        },
        {
            "inputs": [
                {
                    "internalType": "string",
                    "name": "_fileName",
                    "type": "string"
                },
                {
                    "internalType": "string",
                    "name": "_fileHash",
                    "type": "string"
                }
            ],
            "name": "uploadDocument",
            "outputs": [],
            "stateMutability": "nonpayable",
            "type": "function"
        },
        {
            "inputs": [
                {
                    "internalType": "string",
                    "name": "_fileHash",
                    "type": "string"
                }
            ],
            "name": "verifyDocument",
            "outputs": [
                {
                    "internalType": "string",
                    "name": "",
                    "type": "string"
                },
                {
                    "internalType": "uint256",
                    "name": "",
                    "type": "uint256"
                },
                {
                    "internalType": "address",
                    "name": "",
                    "type": "address"
                }
            ],
            "stateMutability": "view",
            "type": "function"
        }
    ],
    "bytecode": "60808060405234601557610672908161001a8239f35b5f80fdfe60806040526004361015610011575f80fd5b5f3560e01c80634464fe33146101a6578063b3dd697b146100fa5763beee5eb71461003a575f80fd5b346100f65760203660031901126100f65760043567ffffffffffffffff81116100f6576020806100716100e79336906004016104ea565b604051928184925191829101835e81015f81520301902060405190610095826104ac565b61009e81610578565b82526100ac60018201610578565b6020830152600281015490816040840152600360018060a01b0391015416918260608201525191604051938493606085526060850190610618565b91602084015260408301520390f35b5f80fd5b346100f65760203660031901126100f65760043567ffffffffffffffff81116100f6576020806101316101899336906004016104ea565b604051928184925191829101835e81015f81520301902061015181610578565b9061015e60018201610578565b610197600283015492600360018060a01b039101541691604051958695608087526080870190610618565b908582036020870152610618565b91604084015260608301520390f35b346100f65760403660031901126100f65760043567ffffffffffffffff81116100f6576101d79036906004016104ea565b60243567ffffffffffffffff81116100f6576101f79036906004016104ea565b60405191610204836104ac565b82526020820191818352604081014281526020806060840194338652604051928184925191829101835e81015f815203019020915180519067ffffffffffffffff82116103d15781906102578554610540565b601f8111610453575b50602090601f83116001146103f0575f926103e5575b50508160011b915f199060031b1c19161782555b6001820193519384519467ffffffffffffffff86116103d1576102ad8254610540565b601f8111610380575b50602090601f871160011461031b57958091600396975f92610310575b50508160011b915f1990871b1c19161790555b5160028201559151910180546001600160a01b0319166001600160a01b0392909216919091179055005b0151905087806102d3565b90601f19871691835f52815f20925f5b81811061036857509160019391896003999a9410610351575b505050811b0190556102e6565b01515f1983891b60f8161c19169055878080610344565b9293602060018192878601518155019501930161032b565b868111156102b657825f5260205f20601f880160051c90602089106103c9575b81601f9101920160051c03905f5b8281106103bc5750506102b6565b5f828201556001016103ae565b5f91506103a0565b634e487b7160e01b5f52604160045260245ffd5b015190508680610276565b5f8681528281209350601f198516905b81811061043b5750908460019594939210610423575b505050811b01825561028a565b01515f1960f88460031b161c19169055868080610416565b92936020600181928786015181550195019301610400565b8281111561026057909150845f5260205f20601f840160051c90602085106104a4575b849392601f0160051c82900391015f5b828110610494575050610260565b5f81830155859450600101610486565b5f9150610476565b6080810190811067ffffffffffffffff8211176103d157604052565b90601f8019910116810190811067ffffffffffffffff8211176103d157604052565b81601f820112156100f65780359067ffffffffffffffff82116103d1576040519261051f601f8401601f1916602001856104c8565b828452602083830101116100f657815f926020809301838601378301015290565b90600182811c9216801561056e575b602083101461055a57565b634e487b7160e01b5f52602260045260245ffd5b91607f169161054f565b9060405191825f82549261058b84610540565b80845293600181169081156105f657506001146105b2575b506105b0925003836104c8565b565b90505f9291925260205f20905f915b8183106105da5750509060206105b0928201015f6105a3565b60209193508060019154838589010152019101909184926105c1565b9050602092506105b094915060ff191682840152151560051b8201015f6105a3565b805180835260209291819084018484015e5f828201840152601f01601f191601019056fea2646970667358221220f9c05a83b704b1f563f8e5a4fc0fbfee971b3c3180d81f29ef6a3a3272052f4364736f6c63430008230033",
    "sourcePath": "c:/Users/bopch/Music/doc-auth-system/contract.sol",
    "compiler": {
        "name": "solc",
        "version": "0.8.35+commit.47b9dedd"
    },
    "functionHashes": {
        "documents(string)": "b3dd697b",
        "uploadDocument(string,string)": "4464fe33",
        "verifyDocument(string)": "beee5eb7"
    },
    "gasEstimates": {
        "creation": {
            "codeDepositCost": "330000",
            "executionCost": "375",
            "totalCost": "330375"
        },
        "external": {
            "documents(string)": "infinite",
            "uploadDocument(string,string)": "infinite",
            "verifyDocument(string)": "infinite"
        }
    }
}